:100000000EC015C014C013C012C011C010C00FC064
:100010000EC00DC00CC00BC00AC009C008C011241E
:100020001FBECFE5D2E0DEBFCDBF02D048C0E8CFD3
:10003000B89AB99ABA9A18BA51E043E032E026E089
:1000400094E085E058BB6FE976E8E1E061507040EC
:10005000E040E1F700C0000048BB6FE976E8E1E06E
:1000600061507040E040E1F700C0000038BB6FE92C
:1000700076E8E1E061507040E040E1F700C0000048
:1000800028BB6FE976E8E1E061507040E040E1F7BD
:1000900000C0000098BB6FE976E8E1E06150704075
:1000A000E040E1F700C0000088BB6FE976E8E1E0DE
:1000B00061507040E040E1F700C00000C3CFF89409
:0200C000FFCF70
:00000001FF
