:100000000EC028C027C026C025C024C023C022C0DF
:1000100021C020C01FC01EC01DC01CC01BC0112499
:100020001FBECFE5D2E0DEBFCDBF10E0A0E6B0E05E
:10003000E4E3F6E102C005900D92A037B107D9F7CD
:1000400010E0A0E7B0E001C01D92A337B107E1F7CF
:100050006CD9EECAD5CF83E187BB83EA8ABD81E044
:1000600083BF80BF80E68CBD08958BBD68BD49BD50
:100070008093700060937100409372000895AEE029
:10008000B0E0E4E4F0E070CA082F162FD42EC901C6
:1000900064E170E034DA3B01E0907000882777FD7E
:1000A0008095982F92D61B012C01602F70E06E195D
:1000B0007109882777FD8095982F87D6A201910135
:1000C00014D569837A838B839C83F0907100612FB0
:1000D00070E06F197109882777FD8095982F75D684
:1000E000A201910102D56D837E838F839887B090A2
:1000F00072006D2D70E06B197109882777FD80956E
:10010000982F63D6A2019101F0D469877A87382E9F
:10011000292E6E2D70E080E090E0FBD66D877E8703
:10012000182F092F6F2D70E080E090E0F2D6F62EA8
:10013000E72ED82EC92E6B2D70E080E090E0E9D636
:10014000B62EA72E982E892E412C512C5FC0798176
:100150006A819B818C81272F362F492F582FBD858F
:10016000AE85F8016B2F7A2F8F2F902F8ED36D874E
:100170007E87182F092F7D816E819F818885272F8B
:10018000362F492F582FD701F6016B2F7E2D8F2F39
:100190009C2D7BD3F62EE72ED82EC92E79856A8525
:1001A000C101272F362F492F522DD501F4016B2F76
:1001B0007A2D8F2F982D69D3B62EA72E982E892EA3
:1001C000A5019401652F742F832F922FDBD1462F29
:1001D00096016F2D7E2D832F922F4C87D3D1262F02
:1001E000FD85EE856F2F7E2F812F902F2B87CAD113
:1001F000862F4C852B85622F38DF8FE39CE9019792
:10020000F1F700C000009FEF491A590A461457043D
:100210000CF49DCF2E96E2E1C3C98F929F92AF92CC
:10022000BF92CF92DF92EF92FF920F931F93809035
:10023000600090906100A0906200B0906300C501E2
:10024000B4018827992729E630E940E050E03ED9FB
:100250006B017C014501AA24BB24C80CD91CEA1CF3
:10026000FB1CC0926000D0926100E0926200F092AC
:1002700063008090640090906500A0906600B0904C
:100280006700C501B4018827992720E536E440E0DE
:1002900050E01CD98B019C014501AA24BB24080D08
:1002A000191D2A1D3B1D00936400109365002093C7
:1002B000660030936700C60177276627600F711FBD
:1002C000821F931F2FEF30E040E050E02BD9862FA4
:1002D0001F910F91FF90EF90DF90CF90BF90AF9064
:1002E0009F908F900895A0E0B0E0E8E7F1E03EC96C
:1002F0005B016C014901D42FC52F20E030E044EBB5
:1003000053E46E2D7F2D802F912FB7D4181654F4FF
:1003100020E030E044EB53E46E2D7F2D802F912FB1
:10032000DAD213C020E030E0A9016E2D7F2D802F9E
:10033000912FF7D487FF0BC020E030E044EB53E46B
:100340006E2D7F2D802F912FA0D27B018C0120E07C
:1003500030E040E752E46E2D7F2D802F912FE1D4C5
:1003600087FF0FC02A2D3B2D4C2D5D2DFE01682DE2
:10037000792D8F2F9C2FAFD22E2D3F2D402F512F17
:100380002FC020E030E044E353E46E2D7F2D802F1A
:10039000912FC7D487FD3AC020E030E040E753E416
:1003A0006E2D7F2D802F912FBCD487FF2CC02A2D3E
:1003B0003B2D4C2D5D2DFE01682D792D8F2F9C2F0F
:1003C0008AD22B013C012E2D3F2D402F512F60E072
:1003D00070E080E793E47FD29B01AC01C301B201DE
:1003E000A4D220E030E040E752E47FD3262F372F1D
:1003F000482F592F6A2D7B2D8C2D9D2D46D24B01D8
:10040000D82FC92F03C04501DC2DCD2D9E01682DAD
:10041000792D832F9C2FCDB7DEB7E0E1C3C8AAE0CA
:10042000B0E0E4E1F2E0A0C86D837E838F8398871B
:1004300029013A01E982FA820B831C831601BA86EC
:10044000A98620E030E040E05FE3C301B20193D42D
:1004500018166CF020E030E040E85FE3C801B70117
:1004600014D29B01AC01C301B2015FD215C0298136
:100470003A814B815C81C301B20107D26B017C01DF
:1004800029813A814B815C81C301B2014ED29B012B
:10049000AC01C701B6011FD2B62EA72E6C0120E019
:1004A00030E0A90169817A818B819C81BCD3811163
:1004B00011C0F1014082518262827382E985FA851E
:1004C0004082518262827382F40140825182628250
:1004D000738253C0A3019201C301B201D6D1D501E9
:1004E0002B2F3A2F4C2D5D2DF6D12B013C0120E016
:1004F00030E040EF52E46D817E818F819885C5D1D7
:100500007B018C01B501272F362F4C2D5D2D642DDD
:10051000752D862D972DE7DEF1016083718382832F
:100520009383ED80FE800F811885B501272F362F2C
:100530004C2D5D2D642D752D862D972DD4DEE985EE
:10054000FA85608371838283938320E030E040EFFB
:1005500052E4C801B701BFD17B018C01B501272F3F
:10056000362F4C2D5D2D642D752D862D972DBBDEE0
:10057000F401608371838283938380E090E02A9604
:10058000E2E10EC8CF92DF92EF92FF920F931F939A
:100590006B017C0120E030E040E05FE498D387FD10
:1005A0000CC020E030E040E05FE4C701B60193D129
:1005B00064D48B019C01305805C0C701B6015DD4DD
:1005C0008B019C01B801C9011F910F91FF90EF9021
:1005D000DF90CF900895A4E0B0E0E0EFF2E0C6C76E
:1005E0007C016A01FC018081823008F44AC1FB0170
:1005F0009081923008F442C1843079F4943009F04B
:1006000040C1F7019181FB018181981709F439C13B
:10061000A8E6EA2EA0E0FA2E34C1943009F42EC1E7
:10062000923091F4823009F02CC188E0F701DA01B0
:1006300001900D928A95E1F7FB018181F70191818B
:100640008923FA0181831CC1823009F417C1F701A3
:1006500082819381FB01A281B381F701048115811D
:1006600026813781FB0184809580A680B780FC01BC
:10067000EA1BFB0BAF01F7FF04C0442755274E1BB5
:100680005F0B403251050CF074C01E161F06B4F506
:1006900024013501042E04C076946794579447943E
:1006A0000A94D2F749825A826B827C82412C512C67
:1006B0003201439404C0440C551C661C771C4A95B7
:1006C000D2F741E0441A51086108710848205920C6
:1006D0006A207B20812C912C540183944528462844
:1006E000472819F4812C912C540149805A806B8041
:1006F0007C8084289528A628B72846C0EF2B09F4CB
:1007000043C0840F951F28013901042E04C076943C
:100710006794579447940A94D2F749825A826B821D
:100720007C82412C512C3201439404C0440C551C52
:10073000661C771C4A95D2F741E0441A51086108BB
:100740007108402251226222732201E010E020E071
:1007500030E045284628472819F400E010E09801C9
:1007600049805A806B807C800429152926293729E5
:100770000BC0A817B90724F4812C912C540104C094
:10078000CD0100E010E09801F7014181FB015181AA
:10079000451709F446C0442349F024013501401AA5
:1007A000510A620A730A9301820104C008191909E7
:1007B0002A093B0937FD05C0F60111829383828324
:1007C0000CC041E0F60141839383828330952095EC
:1007D000109501951F4F2F4F3F4F0483158326839C
:1007E00037830EC0880F991FAA1FBB1FF601848391
:1007F0009583A683B78382819381019793838283B4
:10080000F60184819581A681B781AC01BD0141507B
:100810005109610971094F3F5F4F6F4F7F4310F3DB
:100820000CC0F601418393838283080D191D2A1D94
:100830003B1D048315832683378383E0F601808381
:10084000448155816681778177FF1AC0DB01CA0137
:1008500081709927AA27BB27769567955795479565
:10086000842B952BA62BB72B84839583A683B783E4
:100870008281938101969383828302C07B0101C0B0
:100880007601C7012496E0E18DC6A0E2B0E0EAE47B
:10089000F4E07AC66D8F7E8F8F8F98A3298F3A8F61
:1008A0004B8F5C8FBE016F5E7F4FCE014D966DD436
:1008B000BE01675F7F4FCE01499667D4AE014F5F9F
:1008C0005F4FBE01675F7F4FCE01419684DE93D3B9
:1008D000A096E2E075C6A0E2B0E0E0E7F4E054C61E
:1008E0006D8F7E8F8F8F98A3298F3A8F4B8F5C8F60
:1008F000BE016F5E7F4FCE014D9647D4BE01675F4C
:100900007F4FCE01499641D48A8591E089278A8715
:10091000AE014F5F5F4FBE01675F7F4FCE014196D3
:100920005ADE69D3A096E2E04BC6A0E2B0E0EAE965
:10093000F4E01CC66D8F7E8F8F8F98A3298F3A8F1E
:100940004B8F5C8FBE016F5E7F4FCE014D961DD4E5
:10095000BE01675F7F4FCE01499617D499899230C7
:1009600008F412C08985823008F41AC0943021F44A
:10097000823009F4B4C008C0843021F4923009F404
:10098000AEC00EC0923051F481E02A899A852913B5
:1009900001C080E08A8BCE014196A3C0823051F421
:1009A00081E02A899A85291301C080E08A87CE01D7
:1009B000099697C08D889E88AF88B88C0D851E8556
:1009C0002F853889E0E2F0E080E090E0DC01C12C86
:1009D000D12C760140E050E0BA0180FE18C0400FF3
:1009E000511F621F731F8C0D9D1DAE1DBF1D412C1D
:1009F000512C32014394401751076207730718F0D6
:100A0000412C512C3201840D951DA61DB71DCC0C17
:100A1000DD1CEE1CFF1C37FF02C06894C0F8000FFD
:100A2000111F221F331FB694A79497948794319770
:100A3000A1F62B893C89EB85FC852E0F3F1F2E5F8D
:100A40003F4F3C832B8321E0EA893A85E31301C0C1
:100A500020E02A83EB81FC810CC080FF05C07695E5
:100A60006795579547957068B695A795979587951B
:100A70003196B7FDF2CF9F010CC0880F991FAA1FB6
:100A8000BB1F77FD8160440F551F661F771F2150E4
:100A900031090097A105E0E4BE0778F32B833C837E
:100AA0008C019D010F771127222733270034110570
:100AB0002105310559F487FD09C0452B462B472BED
:100AC00029F0805C9F4FAF4FBF4F80788D839E830E
:100AD000AF83B88783E08983CE01019602C088E6A0
:100AE00090E089D2A096E0E15DC5A8E1B0E0EAE738
:100AF000F5E044C56D8B7E8B8F8B988F298B3A8B5D
:100B00004B8B5C8BBE01675F7F4FCE0145963DD31B
:100B1000BE016F5F7F4FCE01419637D399859230EA
:100B200008F475C08981823008F474C02A853A813E
:100B300023272A87943011F0923019F4981367C054
:100B40006CC0843039F41D861E861F86188A1C8668
:100B50001B8604C0823029F484E08987CE0109967F
:100B60005EC08B859C852B813C81821B930B9C876F
:100B70008B874D855E856F857889CD80DE80EF809F
:100B8000F8844C155D056E057F0538F4440F551F3C
:100B9000661F771F01979C878B87EFE1F0E000E0ED
:100BA00010E020E030E480E090E0DC014C155D05D1
:100BB0006E057F0540F0802B912BA22BB32B4C1997
:100BC0005D096E097F093695279517950795440F9E
:100BD000551F661F771F319749F78C019D010F77CD
:100BE000112722273327003411052105310559F437
:100BF00087FD09C0452B462B472B29F0805C9F4F72
:100C0000AF4FBF4F80788D879E87AF87B88BCE015F
:100C1000099605C0CE01019602C088E690E0EBD1AE
:100C20006896E8E0C7C4A8E1B0E0E8E1F6E0ACC44B
:100C30006D8B7E8B8F8B988F298B3A8B4B8B5C8B3C
:100C4000BE01675F7F4FCE0145969FD2BE016F5FA9
:100C50007F4FCE01419699D28985823050F08981AB
:100C6000823038F0BE016F5F7F4FCE010996FCD213
:100C700001C081E06896E2E0A3C4A8E1B0E0E2E44C
:100C8000F6E082C46D8B7E8B8F8B988F298B3A8B8D
:100C90004B8B5C8BBE01675F7F4FCE01459675D253
:100CA000BE016F5F7F4FCE0141966FD28985823042
:100CB00050F08981823038F0BE016F5F7F4FCE01E6
:100CC0000996D2D201C08FEF6896E2E079C4A8E11C
:100CD000B0E0ECE6F6E058C46D8B7E8B8F8B988F7E
:100CE000298B3A8B4B8B5C8BBE01675F7F4FCE01AC
:100CF00045964BD2BE016F5F7F4FCE01419645D2E4
:100D00008985823050F08981823038F0BE016F5F72
:100D10007F4FCE010996A8D201C08FEF6896E2E01E
:100D20004FC4A8E1B0E0E6E9F6E02EC46D8B7E8BFF
:100D30008F8B988F298B3A8B4B8B5C8BBE01675FB7
:100D40007F4FCE01459621D2BE016F5F7F4FCE010E
:100D500041961BD28985823050F08981823038F0EB
:100D6000BE016F5F7F4FCE0109967ED201C081E048
:100D70006896E2E025C4A8E1B0E0E0ECF6E004C447
:100D80006D8B7E8B8F8B988F298B3A8B4B8B5C8BEB
:100D9000BE01675F7F4FCE014596F7D1BE016F5F01
:100DA0007F4FCE014196F1D18985823050F0898103
:100DB000823038F0BE016F5F7F4FCE01099654D26A
:100DC00001C081E06896E2E0FBC3A8E0B0E0EAEE93
:100DD000F6E0D8C323E029838B019C01002737FD6F
:100DE0000395112722273327402F0A8361157105A8
:100DF0008105910519F482E0898334C02EE130E049
:100E00003C832B83442371F061157105810520E833
:100E1000920761F1002711279801061B170B280B79
:100E2000390B02C08B019C01C901B801E8D30197BD
:100E3000181619062CF00D831E832F83388712C0D5
:100E4000082E04C0000F111F221F331F0A94D2F76F
:100E50000D831E832F8338872EE130E0281B390B4A
:100E60003C832B83CE010196C6D004C060E070E0C5
:100E700080E09FEC2896E4E0A1C3ACE0B0E0E2E4BF
:100E8000F7E080C369877A878B879C87BE016F5F95
:100E90007F4FCE01099679D18981823091F18230DC
:100EA00080F1843041F48A81882331F100E010E040
:100EB00020E030E829C02B813C8137FD22C02F3152
:100EC00031058CF78EE190E0821B930B0D811E8122
:100ED0002F81388504C036952795179507958A95F3
:100EE000D2F78A81882381F030952095109501955D
:100EF0001F4F2F4F3F4F08C00FEF1FEF2FEF3FE760
:100F000003C000E010E09801B801C9012C96E4E0AC
:100F100055C3A8E0B0E0EEE8F7E030C38B019C01D8
:100F20001A82611571058105910519F482E08983A2
:100F30005CC083E089834EE150E05C834B83C90150
:100F4000B8015DD3019797FF39C0EE27FF27E81B53
:100F5000F90B41E050E060E070E00E2E04C0440F59
:100F6000551F661F771F0A94D2F741505109610936
:100F700071094023512362237323C12CD12C7601A4
:100F8000C394452B462B472B19F4C12CD12C760149
:100F900004C03695279517950795EA95D2F70C2941
:100FA0001D292E293F290D831E832F8338872EE18B
:100FB00030E0281B390B3C832B8317C0009729F4A2
:100FC0000D831E832F83388710C0082E04C0000FA6
:100FD000111F221F331F0A94D2F70D831E832F8304
:100FE0003887481B590B5C834B83CE01019603D095
:100FF0002896E8E0DFC20F931F93CF93DF93DC01C5
:1010000014964D915D916D917C9117971196EC918D
:1010100011978C91823020F460618FEF90E0A6C030
:10102000843009F49EC0823009F495C04115510501
:101030006105710509F492C012962D913C911397A8
:1010400022388FEF38070CF058C0C2E8DFEFC21B20
:10105000D30BCA31D1056CF58A019B010C2E04C05B
:1010600036952795179507950A94D2F781E090E079
:10107000A0E0B0E00C2E04C0880F991FAA1FBB1F70
:101080000A94D2F70197A109B10984239523A623D5
:10109000B72341E050E060E070E0892B8A2B8B2B76
:1010A00019F440E050E0BA01402B512B622B732B16
:1010B00003C040E050E0BA01DB01CA018F779927F5
:1010C000AA27BB2780349105A105B10539F447FF54
:1010D00009C0405C5F4F6F4F7F4F04C0415C5F4F62
:1010E0006F4F7F4F81E090E041155105610520E48D
:1010F000720748F580E090E026C0203831058CF575
:10110000DB01CA018F779927AA27BB278034910575
:10111000A105B10539F447FF09C0405C5F4F6F4F2F
:101120007F4F04C0415C5F4F6F4F7F4F77FD04C01E
:10113000C90181589F4F07C0769567955795479588
:10114000C90180589F4F97E07695679557954795C9
:101150009A95D1F70BC080E090E005C080E090E068
:1011600005C08FEF90E040E050E0BA01982F9695CF
:10117000E0FB97F9362F80FB37F9642F752F832F0B
:10118000DF91CF911F910F910895CF92DF92EF924F
:10119000DC01FB01CC901196DC90119712968C919A
:1011A00012973FE7E32EE8226E2DA60170E0982FFC
:1011B000991F9927991F13962C91822F880F892B9D
:1011C00090E027FB222720F92183009729F541157C
:1011D00051056105710511F482E027C082E89FEF97
:1011E0009383828327E0440F551F661F771F2A953C
:1011F000D1F783E0808309C0440F551F661F771F16
:101200008281938101979383828341155105610502
:1012100080E4780788F320C08F3F910579F4411569
:1012200051056105710519F484E0808319C0E4FE5D
:1012300003C081E0808310C010820EC08F579109D7
:101240009383828383E0808387E0440F551F661F6A
:10125000771F8A95D1F770644483558366837783BB
:10126000EF90DF90CF900895CF93FC01DB01908148
:10127000923008F452C08C91823008F44EC0943001
:1012800071F4843039F411962C9130E08181281B5F
:10129000310948C08181882309F43FC03BC08430B4
:1012A00029F411968C91811138C034C0923019F410
:1012B0008230B9F735C0823069F3C18111968C91C3
:1012C0001197C8131DC02281338112968D919C9174
:1012D0001397821793070CF413C0281739070CF4DF
:1012E00017C0448155816681778114968D919D91B7
:1012F0000D90BC91A02D84179507A607B70718F489
:10130000C11108C00AC0481759076A077B0740F493
:10131000C11103C02FEF3FEF05C021E030E002C054
:1013200020E030E0C901CF910895AEE0B0E0EAE9F5
:10133000F9E01AC190D683E287B986B1866886B98A
:1013400084B3886184BB612C712C13E2312E01E2DD
:10135000202E37B8369A3699FECF05B110E027B85F
:10136000369A3699FECF65B170E0663071050CF49F
:1013700059C0882777FD8095982F27DD20E030E041
:101380004FE753E4B2DB2B013C01B801882777FD1E
:101390008095982F1ADD20E030E044EB53E4C5DA65
:1013A00020E030E04FE753E4A0DB88248394912CC5
:1013B0008C0E9D1EF5E0AF2EB12CAC0EBD1EA9E02B
:1013C000CA2ED12CCC0EDD1EE12CF12C00E81FE33F
:1013D000A301920124D820E030E04FE753E4698173
:1013E0007A818B819C81A1DACDD8062F20E030E074
:1013F0004FE753E46D817E818F81988596DAC2D85C
:10140000162F20E030E04FE753E469857A858B851D
:101410009C858BDAB7D8862F402F612F26D6612C7A
:10142000712C38C061147104F1F440E060E08FEF7A
:101430001CD62FEF80E792E0215080409040E1F7EA
:1014400000C0000040E06FEF80E00FD62FEF80E794
:1014500092E0215080409040E1F700C000004FEF43
:1014600060E080E002D62FEF621A720AC80164E1E0
:1014700070E01AD0861597056CF4CFD68E87CDD63E
:101480008D87CBD628EE33E04E856D85F8D5662462
:101490006394712C8FE798E321E0815090402040C5
:1014A000E1F700C0000055CF5527002480FF02C09F
:1014B000060E571F660F771F6115710521F096956F
:1014C0008795009799F7952F802D0895FF27EE2790
:1014D000BB27AA2760FF04C0A20FB31FE41FF51F9C
:1014E000220F331F441F551F969587957795679553
:1014F00089F70097760771F7CF01BD01089597FB33
:10150000072E16F4009406D077FD08D064D007FCAF
:1015100005D03EF4909581959F4F08957095619503
:101520007F4F0895A1E21A2EAA1BBB1BFD010DC01F
:10153000AA1FBB1FEE1FFF1FA217B307E407F50783
:1015400020F0A21BB30BE40BF50B661F771F881F5F
:10155000991F1A9469F760957095809590959B01F5
:10156000AC01BD01CF0108952F923F924F925F923F
:101570006F927F928F929F92AF92BF92CF92DF92A3
:10158000EF92FF920F931F93CF93DF93CDB7DEB708
:10159000CA1BDB0B0FB6F894DEBF0FBECDBF09949C
:1015A0002A88398848885F846E847D848C849B84F3
:1015B000AA84B984C884DF80EE80FD800C811B8101
:1015C000AA81B981CE0FD11D0FB6F894DEBF0FBE30
:1015D000CDBFED010895AA1BBB1B51E107C0AA1F97
:1015E000BB1FA617B70710F0A61BB70B881F991FC4
:1015F0005A95A9F780959095BC01CD01089506D024
:1016000084FF0895CB0102D0805F0895AA27992313
:1016100029F4A85F982B11F480E10895903118F413
:10162000AD5F9295A395990FE8F78A2F99270895B2
:04163000F894FFCF5C
:1016340002000000010000000000000000000000A3
:00000001FF
