:100000000EC015C014C013C012C011C010C00FC064
:100010000EC00DC00CC00BC00AC009C008C011241E
:100020001FBECFE5D2E0DEBFCDBF02D02CC0E8CFEF
:100030008FEF87BB18BA31E022E094E088B38327C2
:1000400088BB4FEB52E383E0415050408040E1F7E2
:1000500000C0000088B3822788BB4FEB52E383E0E7
:10006000415050408040E1F700C0000088B389272C
:1000700088BB4FEB52E383E0415050408040E1F7B2
:0A00800000C00000DBCFF894FFCFB2
:00000001FF
